{
  "_format": "hh-sol-artifact-1",
  "contractName": "InnovETHSettersFacet",
  "sourceName": "contracts/InnovETH/facets/InnovETHSettersFacet.sol",
  "abi": [
    {
      "anonymous": false,
      "inputs": [
        {
          "indexed": true,
          "internalType": "address",
          "name": "caller",
          "type": "address"
        },
        {
          "indexed": true,
          "internalType": "address",
          "name": "projectAddress",
          "type": "address"
        }
      ],
      "name": "ProjectVerified",
      "type": "event"
    },
    {
      "anonymous": false,
      "inputs": [
        {
          "indexed": true,
          "internalType": "address",
          "name": "creator",
          "type": "address"
        },
        {
          "indexed": true,
          "internalType": "uint256",
          "name": "proposalId",
          "type": "uint256"
        },
        {
          "indexed": false,
          "internalType": "string",
          "name": "URIHash",
          "type": "string"
        },
        {
          "indexed": true,
          "internalType": "string",
          "name": "indexedURIHash",
          "type": "string"
        }
      ],
      "name": "ProposalCreated",
      "type": "event"
    },
    {
      "anonymous": false,
      "inputs": [
        {
          "indexed": true,
          "internalType": "bytes32",
          "name": "role",
          "type": "bytes32"
        },
        {
          "indexed": true,
          "internalType": "bytes32",
          "name": "previousAdminRole",
          "type": "bytes32"
        },
        {
          "indexed": true,
          "internalType": "bytes32",
          "name": "newAdminRole",
          "type": "bytes32"
        }
      ],
      "name": "RoleAdminChanged",
      "type": "event"
    },
    {
      "anonymous": false,
      "inputs": [
        {
          "indexed": true,
          "internalType": "bytes32",
          "name": "role",
          "type": "bytes32"
        },
        {
          "indexed": true,
          "internalType": "address",
          "name": "account",
          "type": "address"
        },
        {
          "indexed": true,
          "internalType": "address",
          "name": "sender",
          "type": "address"
        }
      ],
      "name": "RoleGranted",
      "type": "event"
    },
    {
      "anonymous": false,
      "inputs": [
        {
          "indexed": true,
          "internalType": "bytes32",
          "name": "role",
          "type": "bytes32"
        },
        {
          "indexed": true,
          "internalType": "address",
          "name": "account",
          "type": "address"
        },
        {
          "indexed": true,
          "internalType": "address",
          "name": "sender",
          "type": "address"
        }
      ],
      "name": "RoleRevoked",
      "type": "event"
    },
    {
      "anonymous": false,
      "inputs": [
        {
          "indexed": true,
          "internalType": "address",
          "name": "caller",
          "type": "address"
        },
        {
          "indexed": true,
          "internalType": "uint256",
          "name": "proposalId",
          "type": "uint256"
        }
      ],
      "name": "TokenMinted",
      "type": "event"
    },
    {
      "inputs": [],
      "name": "DEFAULT_ADMIN_ROLE",
      "outputs": [
        {
          "internalType": "bytes32",
          "name": "",
          "type": "bytes32"
        }
      ],
      "stateMutability": "view",
      "type": "function"
    },
    {
      "inputs": [
        {
          "internalType": "bytes32",
          "name": "role",
          "type": "bytes32"
        }
      ],
      "name": "getRoleAdmin",
      "outputs": [
        {
          "internalType": "bytes32",
          "name": "",
          "type": "bytes32"
        }
      ],
      "stateMutability": "view",
      "type": "function"
    },
    {
      "inputs": [
        {
          "internalType": "address",
          "name": "adminAddress",
          "type": "address"
        }
      ],
      "name": "grantAdminRole",
      "outputs": [],
      "stateMutability": "nonpayable",
      "type": "function"
    },
    {
      "inputs": [
        {
          "internalType": "bytes32",
          "name": "role",
          "type": "bytes32"
        },
        {
          "internalType": "address",
          "name": "account",
          "type": "address"
        }
      ],
      "name": "grantRole",
      "outputs": [],
      "stateMutability": "nonpayable",
      "type": "function"
    },
    {
      "inputs": [
        {
          "internalType": "bytes32",
          "name": "role",
          "type": "bytes32"
        },
        {
          "internalType": "address",
          "name": "account",
          "type": "address"
        }
      ],
      "name": "hasRole",
      "outputs": [
        {
          "internalType": "bool",
          "name": "",
          "type": "bool"
        }
      ],
      "stateMutability": "view",
      "type": "function"
    },
    {
      "inputs": [
        {
          "internalType": "bytes32",
          "name": "role",
          "type": "bytes32"
        },
        {
          "internalType": "address",
          "name": "account",
          "type": "address"
        }
      ],
      "name": "renounceRole",
      "outputs": [],
      "stateMutability": "nonpayable",
      "type": "function"
    },
    {
      "inputs": [
        {
          "internalType": "bytes32",
          "name": "role",
          "type": "bytes32"
        },
        {
          "internalType": "address",
          "name": "account",
          "type": "address"
        }
      ],
      "name": "revokeRole",
      "outputs": [],
      "stateMutability": "nonpayable",
      "type": "function"
    },
    {
      "inputs": [
        {
          "internalType": "bytes4",
          "name": "interfaceId",
          "type": "bytes4"
        }
      ],
      "name": "supportsInterface",
      "outputs": [
        {
          "internalType": "bool",
          "name": "",
          "type": "bool"
        }
      ],
      "stateMutability": "view",
      "type": "function"
    },
    {
      "inputs": [
        {
          "internalType": "string",
          "name": "newURI",
          "type": "string"
        }
      ],
      "name": "updateBaseURI",
      "outputs": [],
      "stateMutability": "nonpayable",
      "type": "function"
    },
    {
      "inputs": [
        {
          "internalType": "string",
          "name": "newURI",
          "type": "string"
        }
      ],
      "name": "updateContractURI",
      "outputs": [],
      "stateMutability": "nonpayable",
      "type": "function"
    },
    {
      "inputs": [
        {
          "internalType": "string",
          "name": "newName",
          "type": "string"
        }
      ],
      "name": "updateName",
      "outputs": [],
      "stateMutability": "nonpayable",
      "type": "function"
    },
    {
      "inputs": [
        {
          "internalType": "string",
          "name": "newSymbol",
          "type": "string"
        }
      ],
      "name": "updateSymbol",
      "outputs": [],
      "stateMutability": "nonpayable",
      "type": "function"
    },
    {
      "inputs": [
        {
          "internalType": "address",
          "name": "projectAddress",
          "type": "address"
        }
      ],
      "name": "verifyProjectAndGrantMinterRole",
      "outputs": [],
      "stateMutability": "nonpayable",
      "type": "function"
    }
  ],
  "bytecode": "0x608060405234801561001057600080fd5b506115ef806100206000396000f3fe608060405234801561001057600080fd5b50600436106100cf5760003560e01c806384da92a71161008c578063a217fddf11610066578063a217fddf1461020c578063c634b78e1461022a578063d547741f14610246578063d97f4adf14610262576100cf565b806384da92a7146101a457806391d14854146101c0578063931688cb146101f0576100cf565b806301ffc9a7146100d4578063248a9ca3146101045780632f2ff15d1461013457806336568abe14610150578063537f53121461016c5780637e5b1e2414610188575b600080fd5b6100ee60048036038101906100e99190610e44565b61027e565b6040516100fb9190611042565b60405180910390f35b61011e60048036038101906101199190610ddf565b6102f8565b60405161012b919061105d565b60405180910390f35b61014e60048036038101906101499190610e08565b610318565b005b61016a60048036038101906101659190610e08565b610339565b005b61018660048036038101906101819190610e6d565b6103bc565b005b6101a2600480360381019061019d9190610e6d565b6103e1565b005b6101be60048036038101906101b99190610e6d565b610406565b005b6101da60048036038101906101d59190610e08565b61042a565b6040516101e79190611042565b60405180910390f35b61020a60048036038101906102059190610e6d565b610495565b005b6102146104ba565b604051610221919061105d565b60405180910390f35b610244600480360381019061023f9190610db6565b6104c1565b005b610260600480360381019061025b9190610e08565b6104db565b005b61027c60048036038101906102779190610db6565b6104fc565b005b60007f7965db0b000000000000000000000000000000000000000000000000000000007bffffffffffffffffffffffffffffffffffffffffffffffffffffffff1916827bffffffffffffffffffffffffffffffffffffffffffffffffffffffff191614806102f157506102f0826105b6565b5b9050919050565b600060096000838152602001908152602001600020600101549050919050565b610321826102f8565b61032a81610620565b6103348383610634565b505050565b610341610715565b73ffffffffffffffffffffffffffffffffffffffff168173ffffffffffffffffffffffffffffffffffffffff16146103ae576040517f08c379a00000000000000000000000000000000000000000000000000000000081526004016103a5906110fa565b60405180910390fd5b6103b8828261071d565b5050565b6103c46107ff565b80600060010190805190602001906103dd929190610c6c565b5050565b6103e96107ff565b8060006002019080519060200190610402929190610c6c565b5050565b61040e6107ff565b80600080019080519060200190610426929190610c6c565b5050565b60006009600084815260200190815260200160002060000160008373ffffffffffffffffffffffffffffffffffffffff1673ffffffffffffffffffffffffffffffffffffffff16815260200190815260200160002060009054906101000a900460ff16905092915050565b61049d6107ff565b80600060030190805190602001906104b6929190610c6c565b5050565b6000801b81565b6104c96107ff565b6104d86000600501548261089a565b50565b6104e4826102f8565b6104ed81610620565b6104f7838361071d565b505050565b61050b6000600501543361042a565b61054a576040517f08c379a0000000000000000000000000000000000000000000000000000000008152600401610541906110da565b60405180910390fd5b6105596000600601548261089a565b8073ffffffffffffffffffffffffffffffffffffffff163373ffffffffffffffffffffffffffffffffffffffff167f8b20e6df18a0c5d69a9d32e8e706740a7405c6457c579e4497b61e5c3849682c60405160405180910390a350565b60007f01ffc9a7000000000000000000000000000000000000000000000000000000007bffffffffffffffffffffffffffffffffffffffffffffffffffffffff1916827bffffffffffffffffffffffffffffffffffffffffffffffffffffffff1916149050919050565b6106318161062c610715565b6108a8565b50565b61063e828261042a565b6107115760016009600084815260200190815260200160002060000160008373ffffffffffffffffffffffffffffffffffffffff1673ffffffffffffffffffffffffffffffffffffffff16815260200190815260200160002060006101000a81548160ff0219169083151502179055506106b6610715565b73ffffffffffffffffffffffffffffffffffffffff168173ffffffffffffffffffffffffffffffffffffffff16837f2f8788117e7eff1d82e926ec794901d17c78024a50270940304540a733656f0d60405160405180910390a45b5050565b600033905090565b610727828261042a565b156107fb5760006009600084815260200190815260200160002060000160008373ffffffffffffffffffffffffffffffffffffffff1673ffffffffffffffffffffffffffffffffffffffff16815260200190815260200160002060006101000a81548160ff0219169083151502179055506107a0610715565b73ffffffffffffffffffffffffffffffffffffffff168173ffffffffffffffffffffffffffffffffffffffff16837ff6391f5c32d9c69d2a47ea670b442974b53935d1edc7fd64eb21e047a839171b60405160405180910390a45b5050565b610807610945565b60040160009054906101000a900473ffffffffffffffffffffffffffffffffffffffff1673ffffffffffffffffffffffffffffffffffffffff163373ffffffffffffffffffffffffffffffffffffffff1614610898576040517f08c379a000000000000000000000000000000000000000000000000000000000815260040161088f906110ba565b60405180910390fd5b565b6108a48282610634565b5050565b6108b2828261042a565b610941576108d78173ffffffffffffffffffffffffffffffffffffffff166014610972565b6108e58360001c6020610972565b6040516020016108f6929190611008565b6040516020818303038152906040526040517f08c379a00000000000000000000000000000000000000000000000000000000081526004016109389190611078565b60405180910390fd5b5050565b6000807f7ebe20acead178826e523aa23b9f2d4ec9903a0a82ea2ad143a2aab72ae49df190508091505090565b60606000600283600261098591906111ed565b61098f9190611197565b67ffffffffffffffff8111156109ce577f4e487b7100000000000000000000000000000000000000000000000000000000600052604160045260246000fd5b6040519080825280601f01601f191660200182016040528015610a005781602001600182028036833780820191505090505b5090507f300000000000000000000000000000000000000000000000000000000000000081600081518110610a5e577f4e487b7100000000000000000000000000000000000000000000000000000000600052603260045260246000fd5b60200101907effffffffffffffffffffffffffffffffffffffffffffffffffffffffffffff1916908160001a9053507f780000000000000000000000000000000000000000000000000000000000000081600181518110610ae8577f4e487b7100000000000000000000000000000000000000000000000000000000600052603260045260246000fd5b60200101907effffffffffffffffffffffffffffffffffffffffffffffffffffffffffffff1916908160001a90535060006001846002610b2891906111ed565b610b329190611197565b90505b6001811115610c1e577f3031323334353637383961626364656600000000000000000000000000000000600f861660108110610b9a577f4e487b7100000000000000000000000000000000000000000000000000000000600052603260045260246000fd5b1a60f81b828281518110610bd7577f4e487b7100000000000000000000000000000000000000000000000000000000600052603260045260246000fd5b60200101907effffffffffffffffffffffffffffffffffffffffffffffffffffffffffffff1916908160001a905350600485901c945080610c1790611307565b9050610b35565b5060008414610c62576040517f08c379a0000000000000000000000000000000000000000000000000000000008152600401610c599061109a565b60405180910390fd5b8091505092915050565b828054610c7890611331565b90600052602060002090601f016020900481019282610c9a5760008555610ce1565b82601f10610cb357805160ff1916838001178555610ce1565b82800160010185558215610ce1579182015b82811115610ce0578251825591602001919060010190610cc5565b5b509050610cee9190610cf2565b5090565b5b80821115610d0b576000816000905550600101610cf3565b5090565b6000610d22610d1d8461113f565b61111a565b905082815260208101848484011115610d3a57600080fd5b610d458482856112c5565b509392505050565b600081359050610d5c81611574565b92915050565b600081359050610d718161158b565b92915050565b600081359050610d86816115a2565b92915050565b600082601f830112610d9d57600080fd5b8135610dad848260208601610d0f565b91505092915050565b600060208284031215610dc857600080fd5b6000610dd684828501610d4d565b91505092915050565b600060208284031215610df157600080fd5b6000610dff84828501610d62565b91505092915050565b60008060408385031215610e1b57600080fd5b6000610e2985828601610d62565b9250506020610e3a85828601610d4d565b9150509250929050565b600060208284031215610e5657600080fd5b6000610e6484828501610d77565b91505092915050565b600060208284031215610e7f57600080fd5b600082013567ffffffffffffffff811115610e9957600080fd5b610ea584828501610d8c565b91505092915050565b610eb781611259565b82525050565b610ec681611265565b82525050565b6000610ed782611170565b610ee1818561117b565b9350610ef18185602086016112d4565b610efa81611421565b840191505092915050565b6000610f1082611170565b610f1a818561118c565b9350610f2a8185602086016112d4565b80840191505092915050565b6000610f4360208361117b565b9150610f4e82611432565b602082019050919050565b6000610f6660228361117b565b9150610f718261145b565b604082019050919050565b6000610f89601f8361117b565b9150610f94826114aa565b602082019050919050565b6000610fac60178361118c565b9150610fb7826114d3565b601782019050919050565b6000610fcf60118361118c565b9150610fda826114fc565b601182019050919050565b6000610ff2602f8361117b565b9150610ffd82611525565b604082019050919050565b600061101382610f9f565b915061101f8285610f05565b915061102a82610fc2565b91506110368284610f05565b91508190509392505050565b60006020820190506110576000830184610eae565b92915050565b60006020820190506110726000830184610ebd565b92915050565b600060208201905081810360008301526110928184610ecc565b905092915050565b600060208201905081810360008301526110b381610f36565b9050919050565b600060208201905081810360008301526110d381610f59565b9050919050565b600060208201905081810360008301526110f381610f7c565b9050919050565b6000602082019050818103600083015261111381610fe5565b9050919050565b6000611124611135565b90506111308282611363565b919050565b6000604051905090565b600067ffffffffffffffff82111561115a576111596113f2565b5b61116382611421565b9050602081019050919050565b600081519050919050565b600082825260208201905092915050565b600081905092915050565b60006111a2826112bb565b91506111ad836112bb565b9250827fffffffffffffffffffffffffffffffffffffffffffffffffffffffffffffffff038211156111e2576111e1611394565b5b828201905092915050565b60006111f8826112bb565b9150611203836112bb565b9250817fffffffffffffffffffffffffffffffffffffffffffffffffffffffffffffffff048311821515161561123c5761123b611394565b5b828202905092915050565b60006112528261129b565b9050919050565b60008115159050919050565b6000819050919050565b60007fffffffff0000000000000000000000000000000000000000000000000000000082169050919050565b600073ffffffffffffffffffffffffffffffffffffffff82169050919050565b6000819050919050565b82818337600083830152505050565b60005b838110156112f25780820151818401526020810190506112d7565b83811115611301576000848401525b50505050565b6000611312826112bb565b9150600082141561132657611325611394565b5b600182039050919050565b6000600282049050600182168061134957607f821691505b6020821081141561135d5761135c6113c3565b5b50919050565b61136c82611421565b810181811067ffffffffffffffff8211171561138b5761138a6113f2565b5b80604052505050565b7f4e487b7100000000000000000000000000000000000000000000000000000000600052601160045260246000fd5b7f4e487b7100000000000000000000000000000000000000000000000000000000600052602260045260246000fd5b7f4e487b7100000000000000000000000000000000000000000000000000000000600052604160045260246000fd5b6000601f19601f8301169050919050565b7f537472696e67733a20686578206c656e67746820696e73756666696369656e74600082015250565b7f4c69624469616d6f6e643a204d75737420626520636f6e7472616374206f776e60008201527f6572000000000000000000000000000000000000000000000000000000000000602082015250565b7f43616c6c657220646f6573206e6f7420686176652061646d696e20726f6c6500600082015250565b7f416363657373436f6e74726f6c3a206163636f756e7420000000000000000000600082015250565b7f206973206d697373696e6720726f6c6520000000000000000000000000000000600082015250565b7f416363657373436f6e74726f6c3a2063616e206f6e6c792072656e6f756e636560008201527f20726f6c657320666f722073656c660000000000000000000000000000000000602082015250565b61157d81611247565b811461158857600080fd5b50565b61159481611265565b811461159f57600080fd5b50565b6115ab8161126f565b81146115b657600080fd5b5056fea26469706673582212200e91a2c9f3496db0d0340127f703e0cd76b96c11996bb63841fb50ec3c6d96a864736f6c63430008040033",
  "linkReferences": {},
  "deployedLinkReferences": {}
}