{
  "_format": "hh-sol-artifact-1",
  "contractName": "DiamondInit",
  "sourceName": "contracts/shared/DiamondInit.sol",
  "abi": [
    {
      "inputs": [],
      "name": "init",
      "outputs": [],
      "stateMutability": "nonpayable",
      "type": "function"
    }
  ],
  "bytecode": "0x608060405234801561001057600080fd5b506102dc806100206000396000f3fe608060405234801561001057600080fd5b506004361061002b5760003560e01c8063e1c7392a14610030575b600080fd5b61003861003a565b005b6000610044610279565b905060018160030160007f01ffc9a7000000000000000000000000000000000000000000000000000000007bffffffffffffffffffffffffffffffffffffffffffffffffffffffff19167bffffffffffffffffffffffffffffffffffffffffffffffffffffffff1916815260200190815260200160002060006101000a81548160ff02191690831515021790555060018160030160007f1f931c1c000000000000000000000000000000000000000000000000000000007bffffffffffffffffffffffffffffffffffffffffffffffffffffffff19167bffffffffffffffffffffffffffffffffffffffffffffffffffffffff1916815260200190815260200160002060006101000a81548160ff02191690831515021790555060018160030160007f48e2b093000000000000000000000000000000000000000000000000000000007bffffffffffffffffffffffffffffffffffffffffffffffffffffffff19167bffffffffffffffffffffffffffffffffffffffffffffffffffffffff1916815260200190815260200160002060006101000a81548160ff02191690831515021790555060018160030160007f7f5828d0000000000000000000000000000000000000000000000000000000007bffffffffffffffffffffffffffffffffffffffffffffffffffffffff19167bffffffffffffffffffffffffffffffffffffffffffffffffffffffff1916815260200190815260200160002060006101000a81548160ff02191690831515021790555050565b6000807f7ebe20acead178826e523aa23b9f2d4ec9903a0a82ea2ad143a2aab72ae49df19050809150509056fea2646970667358221220f1f433a4dc5cb445a137cc1eb0d8a5d415d84078f98b512d1963edea97832ffb64736f6c63430008040033",
  "linkReferences": {},
  "deployedLinkReferences": {}
}