{
  "_format": "hh-sol-artifact-1",
  "contractName": "InnovETHFacet",
  "sourceName": "contracts/InnovETH/facets/InnovETHFacet.sol",
  "abi": [
    {
      "inputs": [
        {
          "internalType": "string",
          "name": "baseURI_",
          "type": "string"
        },
        {
          "internalType": "string",
          "name": "contractURI_",
          "type": "string"
        }
      ],
      "stateMutability": "nonpayable",
      "type": "constructor"
    },
    {
      "anonymous": false,
      "inputs": [
        {
          "indexed": true,
          "internalType": "address",
          "name": "account",
          "type": "address"
        },
        {
          "indexed": true,
          "internalType": "address",
          "name": "operator",
          "type": "address"
        },
        {
          "indexed": false,
          "internalType": "bool",
          "name": "approved",
          "type": "bool"
        }
      ],
      "name": "ApprovalForAll",
      "type": "event"
    },
    {
      "anonymous": false,
      "inputs": [
        {
          "indexed": false,
          "internalType": "address",
          "name": "account",
          "type": "address"
        }
      ],
      "name": "Paused",
      "type": "event"
    },
    {
      "anonymous": false,
      "inputs": [
        {
          "indexed": true,
          "internalType": "address",
          "name": "caller",
          "type": "address"
        },
        {
          "indexed": true,
          "internalType": "address",
          "name": "projectAddress",
          "type": "address"
        }
      ],
      "name": "ProjectVerified",
      "type": "event"
    },
    {
      "anonymous": false,
      "inputs": [
        {
          "indexed": true,
          "internalType": "address",
          "name": "creator",
          "type": "address"
        },
        {
          "indexed": true,
          "internalType": "uint256",
          "name": "proposalId",
          "type": "uint256"
        },
        {
          "indexed": false,
          "internalType": "string",
          "name": "URIHash",
          "type": "string"
        },
        {
          "indexed": true,
          "internalType": "string",
          "name": "indexedURIHash",
          "type": "string"
        }
      ],
      "name": "ProposalCreated",
      "type": "event"
    },
    {
      "anonymous": false,
      "inputs": [
        {
          "indexed": true,
          "internalType": "address",
          "name": "caller",
          "type": "address"
        },
        {
          "indexed": true,
          "internalType": "uint256",
          "name": "proposalId",
          "type": "uint256"
        }
      ],
      "name": "TokenMinted",
      "type": "event"
    },
    {
      "anonymous": false,
      "inputs": [
        {
          "indexed": true,
          "internalType": "address",
          "name": "operator",
          "type": "address"
        },
        {
          "indexed": true,
          "internalType": "address",
          "name": "from",
          "type": "address"
        },
        {
          "indexed": true,
          "internalType": "address",
          "name": "to",
          "type": "address"
        },
        {
          "indexed": false,
          "internalType": "uint256[]",
          "name": "ids",
          "type": "uint256[]"
        },
        {
          "indexed": false,
          "internalType": "uint256[]",
          "name": "values",
          "type": "uint256[]"
        }
      ],
      "name": "TransferBatch",
      "type": "event"
    },
    {
      "anonymous": false,
      "inputs": [
        {
          "indexed": true,
          "internalType": "address",
          "name": "operator",
          "type": "address"
        },
        {
          "indexed": true,
          "internalType": "address",
          "name": "from",
          "type": "address"
        },
        {
          "indexed": true,
          "internalType": "address",
          "name": "to",
          "type": "address"
        },
        {
          "indexed": false,
          "internalType": "uint256",
          "name": "id",
          "type": "uint256"
        },
        {
          "indexed": false,
          "internalType": "uint256",
          "name": "value",
          "type": "uint256"
        }
      ],
      "name": "TransferSingle",
      "type": "event"
    },
    {
      "anonymous": false,
      "inputs": [
        {
          "indexed": false,
          "internalType": "string",
          "name": "value",
          "type": "string"
        },
        {
          "indexed": true,
          "internalType": "uint256",
          "name": "id",
          "type": "uint256"
        }
      ],
      "name": "URI",
      "type": "event"
    },
    {
      "anonymous": false,
      "inputs": [
        {
          "indexed": false,
          "internalType": "address",
          "name": "account",
          "type": "address"
        }
      ],
      "name": "Unpaused",
      "type": "event"
    },
    {
      "inputs": [
        {
          "internalType": "string",
          "name": "baseURI_",
          "type": "string"
        },
        {
          "internalType": "string",
          "name": "contractURI_",
          "type": "string"
        }
      ],
      "name": "__InnovETH_init_unchained",
      "outputs": [],
      "stateMutability": "nonpayable",
      "type": "function"
    },
    {
      "inputs": [
        {
          "internalType": "address",
          "name": "account",
          "type": "address"
        },
        {
          "internalType": "uint256",
          "name": "id",
          "type": "uint256"
        }
      ],
      "name": "balanceOf",
      "outputs": [
        {
          "internalType": "uint256",
          "name": "",
          "type": "uint256"
        }
      ],
      "stateMutability": "view",
      "type": "function"
    },
    {
      "inputs": [
        {
          "internalType": "address[]",
          "name": "accounts",
          "type": "address[]"
        },
        {
          "internalType": "uint256[]",
          "name": "ids",
          "type": "uint256[]"
        }
      ],
      "name": "balanceOfBatch",
      "outputs": [
        {
          "internalType": "uint256[]",
          "name": "",
          "type": "uint256[]"
        }
      ],
      "stateMutability": "view",
      "type": "function"
    },
    {
      "inputs": [
        {
          "internalType": "string",
          "name": "URIHash",
          "type": "string"
        }
      ],
      "name": "createProposal",
      "outputs": [],
      "stateMutability": "nonpayable",
      "type": "function"
    },
    {
      "inputs": [
        {
          "internalType": "address",
          "name": "account",
          "type": "address"
        },
        {
          "internalType": "address",
          "name": "operator",
          "type": "address"
        }
      ],
      "name": "isApprovedForAll",
      "outputs": [
        {
          "internalType": "bool",
          "name": "",
          "type": "bool"
        }
      ],
      "stateMutability": "view",
      "type": "function"
    },
    {
      "inputs": [
        {
          "internalType": "uint256",
          "name": "proposalId",
          "type": "uint256"
        }
      ],
      "name": "joinDiscussion",
      "outputs": [],
      "stateMutability": "nonpayable",
      "type": "function"
    },
    {
      "inputs": [
        {
          "internalType": "uint256",
          "name": "tokenId",
          "type": "uint256"
        }
      ],
      "name": "ownerOf",
      "outputs": [
        {
          "internalType": "bool",
          "name": "",
          "type": "bool"
        }
      ],
      "stateMutability": "view",
      "type": "function"
    },
    {
      "inputs": [],
      "name": "pause",
      "outputs": [],
      "stateMutability": "nonpayable",
      "type": "function"
    },
    {
      "inputs": [],
      "name": "paused",
      "outputs": [
        {
          "internalType": "bool",
          "name": "",
          "type": "bool"
        }
      ],
      "stateMutability": "view",
      "type": "function"
    },
    {
      "inputs": [
        {
          "internalType": "address",
          "name": "from",
          "type": "address"
        },
        {
          "internalType": "address",
          "name": "to",
          "type": "address"
        },
        {
          "internalType": "uint256[]",
          "name": "ids",
          "type": "uint256[]"
        },
        {
          "internalType": "uint256[]",
          "name": "amounts",
          "type": "uint256[]"
        },
        {
          "internalType": "bytes",
          "name": "data",
          "type": "bytes"
        }
      ],
      "name": "safeBatchTransferFrom",
      "outputs": [],
      "stateMutability": "nonpayable",
      "type": "function"
    },
    {
      "inputs": [
        {
          "internalType": "address",
          "name": "from",
          "type": "address"
        },
        {
          "internalType": "address",
          "name": "to",
          "type": "address"
        },
        {
          "internalType": "uint256",
          "name": "id",
          "type": "uint256"
        },
        {
          "internalType": "uint256",
          "name": "amount",
          "type": "uint256"
        },
        {
          "internalType": "bytes",
          "name": "data",
          "type": "bytes"
        }
      ],
      "name": "safeTransferFrom",
      "outputs": [],
      "stateMutability": "nonpayable",
      "type": "function"
    },
    {
      "inputs": [
        {
          "internalType": "address",
          "name": "operator",
          "type": "address"
        },
        {
          "internalType": "bool",
          "name": "approved",
          "type": "bool"
        }
      ],
      "name": "setApprovalForAll",
      "outputs": [],
      "stateMutability": "nonpayable",
      "type": "function"
    },
    {
      "inputs": [
        {
          "internalType": "bytes4",
          "name": "interfaceId",
          "type": "bytes4"
        }
      ],
      "name": "supportsInterface",
      "outputs": [
        {
          "internalType": "bool",
          "name": "",
          "type": "bool"
        }
      ],
      "stateMutability": "view",
      "type": "function"
    },
    {
      "inputs": [],
      "name": "unpause",
      "outputs": [],
      "stateMutability": "nonpayable",
      "type": "function"
    },
    {
      "inputs": [
        {
          "internalType": "string",
          "name": "newURI",
          "type": "string"
        }
      ],
      "name": "updateURI",
      "outputs": [],
      "stateMutability": "nonpayable",
      "type": "function"
    },
    {
      "inputs": [
        {
          "internalType": "uint256",
          "name": "proposalId",
          "type": "uint256"
        }
      ],
      "name": "uri",
      "outputs": [
        {
          "internalType": "string",
          "name": "",
          "type": "string"
        }
      ],
      "stateMutability": "view",
      "type": "function"
    }
  ],
  "bytecode": "0x60806040523480156200001157600080fd5b506040516200408638038062004086833981810160405281019062000037919062000363565b816040516020016200004a919062000434565b6040516020818303038152906040526200006a81620000a860201b60201c565b506000600c60006101000a81548160ff0219169083151502179055506001600d81905550620000a08282620000c460201b60201c565b505062000609565b80600b9080519060200190620000c092919062000241565b5050565b6040518060400160405280600881526020017f496e6e6f764554480000000000000000000000000000000000000000000000008152506000800190805190602001906200011392919062000241565b506040518060400160405280600681526020017f494e564554480000000000000000000000000000000000000000000000000000815250600060010190805190602001906200016492919062000241565b5030600060040160006101000a81548173ffffffffffffffffffffffffffffffffffffffff021916908373ffffffffffffffffffffffffffffffffffffffff1602179055508060006002019080519060200190620001c492919062000241565b508160006003019080519060200190620001e092919062000241565b507f9f2df0fed2c77648de5860a4cc508cd0818c85b8b8a1ab4ceeef8d981c8956a66000600601819055506200023d8260405160200162000222919062000434565b604051602081830303815290604052620000a860201b60201c565b5050565b8280546200024f9062000505565b90600052602060002090601f016020900481019282620002735760008555620002bf565b82601f106200028e57805160ff1916838001178555620002bf565b82800160010185558215620002bf579182015b82811115620002be578251825591602001919060010190620002a1565b5b509050620002ce9190620002d2565b5090565b5b80821115620002ed576000816000905550600101620002d3565b5090565b600062000308620003028462000483565b6200045a565b9050828152602081018484840111156200032157600080fd5b6200032e848285620004cf565b509392505050565b600082601f8301126200034857600080fd5b81516200035a848260208601620002f1565b91505092915050565b600080604083850312156200037757600080fd5b600083015167ffffffffffffffff8111156200039257600080fd5b620003a08582860162000336565b925050602083015167ffffffffffffffff811115620003be57600080fd5b620003cc8582860162000336565b9150509250929050565b6000620003e382620004b9565b620003ef8185620004c4565b935062000401818560208601620004cf565b80840191505092915050565b60006200041c600483620004c4565b91506200042982620005e0565b600482019050919050565b6000620004428284620003d6565b91506200044f826200040d565b915081905092915050565b60006200046662000479565b90506200047482826200053b565b919050565b6000604051905090565b600067ffffffffffffffff821115620004a157620004a0620005a0565b5b620004ac82620005cf565b9050602081019050919050565b600081519050919050565b600081905092915050565b60005b83811015620004ef578082015181840152602081019050620004d2565b83811115620004ff576000848401525b50505050565b600060028204905060018216806200051e57607f821691505b6020821081141562000535576200053462000571565b5b50919050565b6200054682620005cf565b810181811067ffffffffffffffff82111715620005685762000567620005a0565b5b80604052505050565b7f4e487b7100000000000000000000000000000000000000000000000000000000600052602260045260246000fd5b7f4e487b7100000000000000000000000000000000000000000000000000000000600052604160045260246000fd5b6000601f19601f8301169050919050565b7f7b69647d00000000000000000000000000000000000000000000000000000000600082015250565b613a6d80620006196000396000f3fe608060405234801561001057600080fd5b50600436106100ff5760003560e01c80635c975abb11610097578063b53e0cf511610066578063b53e0cf514610296578063c30f4a5a146102b2578063e985e9c5146102ce578063f242432a146102fe576100ff565b80635c975abb146102225780636352211e146102405780638456cb5914610270578063a22cb4651461027a576100ff565b80632eb2c2d6116100d35780632eb2c2d6146101b05780633f4ba83a146101cc57806349c2a1a6146101d65780634e1273f4146101f2576100ff565b8062fdd58e1461010457806301ffc9a7146101345780630e89341c14610164578063229e809714610194575b600080fd5b61011e6004803603810190610119919061255a565b61031a565b60405161012b9190612fea565b60405180910390f35b61014e60048036038101906101499190612602565b6103e4565b60405161015b9190612d4d565b60405180910390f35b61017e60048036038101906101799190612701565b6104c6565b60405161018b9190612d68565b60405180910390f35b6101ae60048036038101906101a99190612695565b610568565b005b6101ca60048036038101906101c591906123d0565b6106d3565b005b6101d4610774565b005b6101f060048036038101906101eb9190612654565b61078e565b005b61020c60048036038101906102079190612596565b6109e9565b6040516102199190612cf4565b60405180910390f35b61022a610b9a565b6040516102379190612d4d565b60405180910390f35b61025a60048036038101906102559190612701565b610bb1565b6040516102679190612d4d565b60405180910390f35b610278610bc7565b005b610294600480360381019061028f919061251e565b610be1565b005b6102b060048036038101906102ab9190612701565b610bf7565b005b6102cc60048036038101906102c79190612654565b610d5f565b005b6102e860048036038101906102e39190612394565b610d73565b6040516102f59190612d4d565b60405180910390f35b6103186004803603810190610313919061248f565b610e07565b005b60008073ffffffffffffffffffffffffffffffffffffffff168373ffffffffffffffffffffffffffffffffffffffff16141561038b576040517f08c379a000000000000000000000000000000000000000000000000000000000815260040161038290612e6a565b60405180910390fd5b6009600083815260200190815260200160002060008473ffffffffffffffffffffffffffffffffffffffff1673ffffffffffffffffffffffffffffffffffffffff16815260200190815260200160002054905092915050565b60007fd9b67a26000000000000000000000000000000000000000000000000000000007bffffffffffffffffffffffffffffffffffffffffffffffffffffffff1916827bffffffffffffffffffffffffffffffffffffffffffffffffffffffff191614806104af57507f0e89341c000000000000000000000000000000000000000000000000000000007bffffffffffffffffffffffffffffffffffffffffffffffffffffffff1916827bffffffffffffffffffffffffffffffffffffffffffffffffffffffff1916145b806104bf57506104be82610ea8565b5b9050919050565b60606000821180156104e457506104e06000600701610f12565b8211155b610523576040517f08c379a000000000000000000000000000000000000000000000000000000000815260040161051a90612e4a565b60405180910390fd5b600060030160006008016000848152602001908152602001600020600001604051602001610552929190612bf3565b6040516020818303038152906040529050919050565b6040518060400160405280600881526020017f496e6e6f764554480000000000000000000000000000000000000000000000008152506000800190805190602001906105b592919061208c565b506040518060400160405280600681526020017f494e5645544800000000000000000000000000000000000000000000000000008152506000600101908051906020019061060492919061208c565b5030600060040160006101000a81548173ffffffffffffffffffffffffffffffffffffffff021916908373ffffffffffffffffffffffffffffffffffffffff160217905550806000600201908051906020019061066292919061208c565b50816000600301908051906020019061067c92919061208c565b507f9f2df0fed2c77648de5860a4cc508cd0818c85b8b8a1ab4ceeef8d981c8956a66000600601819055506106cf826040516020016106bb9190612bd1565b604051602081830303815290604052610f20565b5050565b6106db610f3a565b73ffffffffffffffffffffffffffffffffffffffff168573ffffffffffffffffffffffffffffffffffffffff16148061072157506107208561071b610f3a565b610d73565b5b610760576040517f08c379a000000000000000000000000000000000000000000000000000000000815260040161075790612daa565b60405180910390fd5b61076d8585858585610f42565b5050505050565b61077c6112b3565b6107846112fc565b61078c611397565b565b6107966113fa565b6002600d5414156107dc576040517f08c379a00000000000000000000000000000000000000000000000000000000081526004016107d390612faa565b60405180910390fd5b6002600d81905550600081511415610829576040517f08c379a000000000000000000000000000000000000000000000000000000000815260040161082090612f0a565b60405180910390fd5b6108416001600060070161144490919063ffffffff16565b60405180604001604052808281526020013373ffffffffffffffffffffffffffffffffffffffff16815250600060080160006108806000600701610f12565b815260200190815260200160002060008201518160000190805190602001906108aa92919061208c565b5060208201518160010160006101000a81548173ffffffffffffffffffffffffffffffffffffffff021916908373ffffffffffffffffffffffffffffffffffffffff16021790555090505061091d336109066000600701610f12565b60016040518060200160405280600081525061149d565b8060405161092b9190612bba565b60405180910390206109406000600701610f12565b3373ffffffffffffffffffffffffffffffffffffffff167f159b1700cd7df9a02ebd9146656ece0709ae72eb101364f67f2e48a69884f266846040516109869190612d68565b60405180910390a461099b6000600701610f12565b3373ffffffffffffffffffffffffffffffffffffffff167fb9144c96c86541f6fa89c9f2f02495cccf4b08cd6643e26d34ee00aa586558a860405160405180910390a36001600d8190555050565b60608151835114610a2f576040517f08c379a0000000000000000000000000000000000000000000000000000000008152600401610a2690612f4a565b60405180910390fd5b6000835167ffffffffffffffff811115610a72577f4e487b7100000000000000000000000000000000000000000000000000000000600052604160045260246000fd5b604051908082528060200260200182016040528015610aa05781602001602082028036833780820191505090505b50905060005b8451811015610b8f57610b39858281518110610aeb577f4e487b7100000000000000000000000000000000000000000000000000000000600052603260045260246000fd5b6020026020010151858381518110610b2c577f4e487b7100000000000000000000000000000000000000000000000000000000600052603260045260246000fd5b602002602001015161031a565b828281518110610b72577f4e487b7100000000000000000000000000000000000000000000000000000000600052603260045260246000fd5b60200260200101818152505080610b889061330d565b9050610aa6565b508091505092915050565b6000600c60009054906101000a900460ff16905090565b600080610bbe338461031a565b14159050919050565b610bcf6113fa565b610bd76112fc565b610bdf61164f565b565b610bf3610bec610f3a565b83836116b2565b5050565b610bff6113fa565b6002600d541415610c45576040517f08c379a0000000000000000000000000000000000000000000000000000000008152600401610c3c90612faa565b60405180910390fd5b6002600d81905550600081118015610c695750610c656000600701610f12565b8111155b610ca8576040517f08c379a0000000000000000000000000000000000000000000000000000000008152600401610c9f90612e4a565b60405180910390fd5b6000610cb4338361031a565b14610cf4576040517f08c379a0000000000000000000000000000000000000000000000000000000008152600401610ceb90612fca565b60405180910390fd5b610d10338260016040518060200160405280600081525061149d565b803373ffffffffffffffffffffffffffffffffffffffff167fb9144c96c86541f6fa89c9f2f02495cccf4b08cd6643e26d34ee00aa586558a860405160405180910390a36001600d8190555050565b610d676112fc565b610d7081610f20565b50565b6000600a60008473ffffffffffffffffffffffffffffffffffffffff1673ffffffffffffffffffffffffffffffffffffffff16815260200190815260200160002060008373ffffffffffffffffffffffffffffffffffffffff1673ffffffffffffffffffffffffffffffffffffffff16815260200190815260200160002060009054906101000a900460ff16905092915050565b610e0f610f3a565b73ffffffffffffffffffffffffffffffffffffffff168573ffffffffffffffffffffffffffffffffffffffff161480610e555750610e5485610e4f610f3a565b610d73565b5b610e94576040517f08c379a0000000000000000000000000000000000000000000000000000000008152600401610e8b90612daa565b60405180910390fd5b610ea1858585858561181f565b5050505050565b60007f01ffc9a7000000000000000000000000000000000000000000000000000000007bffffffffffffffffffffffffffffffffffffffffffffffffffffffff1916827bffffffffffffffffffffffffffffffffffffffffffffffffffffffff1916149050919050565b600081600001549050919050565b80600b9080519060200190610f3692919061208c565b5050565b600033905090565b8151835114610f86576040517f08c379a0000000000000000000000000000000000000000000000000000000008152600401610f7d90612f6a565b60405180910390fd5b600073ffffffffffffffffffffffffffffffffffffffff168473ffffffffffffffffffffffffffffffffffffffff161415610ff6576040517f08c379a0000000000000000000000000000000000000000000000000000000008152600401610fed90612eca565b60405180910390fd5b6000611000610f3a565b9050611010818787878787611abe565b60005b8451811015611210576000858281518110611057577f4e487b7100000000000000000000000000000000000000000000000000000000600052603260045260246000fd5b60200260200101519050600085838151811061109c577f4e487b7100000000000000000000000000000000000000000000000000000000600052603260045260246000fd5b6020026020010151905060006009600084815260200190815260200160002060008b73ffffffffffffffffffffffffffffffffffffffff1673ffffffffffffffffffffffffffffffffffffffff1681526020019081526020016000205490508181101561113e576040517f08c379a000000000000000000000000000000000000000000000000000000000815260040161113590612eea565b60405180910390fd5b8181036009600085815260200190815260200160002060008c73ffffffffffffffffffffffffffffffffffffffff1673ffffffffffffffffffffffffffffffffffffffff16815260200190815260200160002081905550816009600085815260200190815260200160002060008b73ffffffffffffffffffffffffffffffffffffffff1673ffffffffffffffffffffffffffffffffffffffff16815260200190815260200160002060008282546111f5919061319e565b92505081905550505050806112099061330d565b9050611013565b508473ffffffffffffffffffffffffffffffffffffffff168673ffffffffffffffffffffffffffffffffffffffff168273ffffffffffffffffffffffffffffffffffffffff167f4a39dc06d4c0dbc64b70af90fd698a233a518aa5d07e595d983b8c0526c8f7fb8787604051611287929190612d16565b60405180910390a461129d818787878787611b98565b6112ab818787878787611ba0565b505050505050565b6112bb610b9a565b6112fa576040517f08c379a00000000000000000000000000000000000000000000000000000000081526004016112f190612e0a565b60405180910390fd5b565b611304611d87565b60040160009054906101000a900473ffffffffffffffffffffffffffffffffffffffff1673ffffffffffffffffffffffffffffffffffffffff163373ffffffffffffffffffffffffffffffffffffffff1614611395576040517f08c379a000000000000000000000000000000000000000000000000000000000815260040161138c90612e2a565b60405180910390fd5b565b61139f6112b3565b6000600c60006101000a81548160ff0219169083151502179055507f5db9ee0a495bf2e6ff9c91a7834c1ba4fdd244a5e8aa4e537bd38aeae4b073aa6113e3610f3a565b6040516113f09190612c17565b60405180910390a1565b611402610b9a565b15611442576040517f08c379a000000000000000000000000000000000000000000000000000000000815260040161143990612eaa565b60405180910390fd5b565b60008111611487576040517f08c379a000000000000000000000000000000000000000000000000000000000815260040161147e90612e8a565b60405180910390fd5b8082600001600082825401925050819055505050565b600073ffffffffffffffffffffffffffffffffffffffff168473ffffffffffffffffffffffffffffffffffffffff16141561150d576040517f08c379a000000000000000000000000000000000000000000000000000000000815260040161150490612f8a565b60405180910390fd5b6000611517610f3a565b9050600061152485611db4565b9050600061153185611db4565b905061154283600089858589611abe565b846009600088815260200190815260200160002060008973ffffffffffffffffffffffffffffffffffffffff1673ffffffffffffffffffffffffffffffffffffffff16815260200190815260200160002060008282546115a2919061319e565b925050819055508673ffffffffffffffffffffffffffffffffffffffff16600073ffffffffffffffffffffffffffffffffffffffff168473ffffffffffffffffffffffffffffffffffffffff167fc3d58168c5ae7397731d063d5bbf3d657854427343f4c083240f7aacaa2d0f628989604051611620929190613005565b60405180910390a461163783600089858589611b98565b61164683600089898989611e7a565b50505050505050565b6116576113fa565b6001600c60006101000a81548160ff0219169083151502179055507f62e78cea01bee320cd4e420270b5ea74000d11b0c9f74754ebdbfc544b05a25861169b610f3a565b6040516116a89190612c17565b60405180910390a1565b8173ffffffffffffffffffffffffffffffffffffffff168373ffffffffffffffffffffffffffffffffffffffff161415611721576040517f08c379a000000000000000000000000000000000000000000000000000000000815260040161171890612f2a565b60405180910390fd5b80600a60008573ffffffffffffffffffffffffffffffffffffffff1673ffffffffffffffffffffffffffffffffffffffff16815260200190815260200160002060008473ffffffffffffffffffffffffffffffffffffffff1673ffffffffffffffffffffffffffffffffffffffff16815260200190815260200160002060006101000a81548160ff0219169083151502179055508173ffffffffffffffffffffffffffffffffffffffff168373ffffffffffffffffffffffffffffffffffffffff167f17307eab39ab6107e8899845ad3d59bd9653f200f220920489ca2b5937696c31836040516118129190612d4d565b60405180910390a3505050565b600073ffffffffffffffffffffffffffffffffffffffff168473ffffffffffffffffffffffffffffffffffffffff16141561188f576040517f08c379a000000000000000000000000000000000000000000000000000000000815260040161188690612eca565b60405180910390fd5b6000611899610f3a565b905060006118a685611db4565b905060006118b385611db4565b90506118c3838989858589611abe565b60006009600088815260200190815260200160002060008a73ffffffffffffffffffffffffffffffffffffffff1673ffffffffffffffffffffffffffffffffffffffff1681526020019081526020016000205490508581101561195b576040517f08c379a000000000000000000000000000000000000000000000000000000000815260040161195290612eea565b60405180910390fd5b8581036009600089815260200190815260200160002060008b73ffffffffffffffffffffffffffffffffffffffff1673ffffffffffffffffffffffffffffffffffffffff16815260200190815260200160002081905550856009600089815260200190815260200160002060008a73ffffffffffffffffffffffffffffffffffffffff1673ffffffffffffffffffffffffffffffffffffffff1681526020019081526020016000206000828254611a12919061319e565b925050819055508773ffffffffffffffffffffffffffffffffffffffff168973ffffffffffffffffffffffffffffffffffffffff168573ffffffffffffffffffffffffffffffffffffffff167fc3d58168c5ae7397731d063d5bbf3d657854427343f4c083240f7aacaa2d0f628a8a604051611a8f929190613005565b60405180910390a4611aa5848a8a86868a611b98565b611ab3848a8a8a8a8a611e7a565b505050505050505050565b611acc868686868686612061565b60005b8351811015611b8f57600073ffffffffffffffffffffffffffffffffffffffff168673ffffffffffffffffffffffffffffffffffffffff161480611b3f5750600073ffffffffffffffffffffffffffffffffffffffff168573ffffffffffffffffffffffffffffffffffffffff16145b611b7e576040517f08c379a0000000000000000000000000000000000000000000000000000000008152600401611b7590612dea565b60405180910390fd5b80611b889061330d565b9050611acf565b50505050505050565b505050505050565b611bbf8473ffffffffffffffffffffffffffffffffffffffff16612069565b15611d7f578373ffffffffffffffffffffffffffffffffffffffff1663bc197c8187878686866040518663ffffffff1660e01b8152600401611c05959493929190612c32565b602060405180830381600087803b158015611c1f57600080fd5b505af1925050508015611c5057506040513d601f19601f82011682018060405250810190611c4d919061262b565b60015b611cf657611c5c6133e3565b806308c379a01415611cb95750611c71613945565b80611c7c5750611cbb565b806040517f08c379a0000000000000000000000000000000000000000000000000000000008152600401611cb09190612d68565b60405180910390fd5b505b6040517f08c379a0000000000000000000000000000000000000000000000000000000008152600401611ced90612d8a565b60405180910390fd5b63bc197c8160e01b7bffffffffffffffffffffffffffffffffffffffffffffffffffffffff1916817bffffffffffffffffffffffffffffffffffffffffffffffffffffffff191614611d7d576040517f08c379a0000000000000000000000000000000000000000000000000000000008152600401611d7490612dca565b60405180910390fd5b505b505050505050565b6000807f7ebe20acead178826e523aa23b9f2d4ec9903a0a82ea2ad143a2aab72ae49df190508091505090565b60606000600167ffffffffffffffff811115611df9577f4e487b7100000000000000000000000000000000000000000000000000000000600052604160045260246000fd5b604051908082528060200260200182016040528015611e275781602001602082028036833780820191505090505b5090508281600081518110611e65577f4e487b7100000000000000000000000000000000000000000000000000000000600052603260045260246000fd5b60200260200101818152505080915050919050565b611e998473ffffffffffffffffffffffffffffffffffffffff16612069565b15612059578373ffffffffffffffffffffffffffffffffffffffff1663f23a6e6187878686866040518663ffffffff1660e01b8152600401611edf959493929190612c9a565b602060405180830381600087803b158015611ef957600080fd5b505af1925050508015611f2a57506040513d601f19601f82011682018060405250810190611f27919061262b565b60015b611fd057611f366133e3565b806308c379a01415611f935750611f4b613945565b80611f565750611f95565b806040517f08c379a0000000000000000000000000000000000000000000000000000000008152600401611f8a9190612d68565b60405180910390fd5b505b6040517f08c379a0000000000000000000000000000000000000000000000000000000008152600401611fc790612d8a565b60405180910390fd5b63f23a6e6160e01b7bffffffffffffffffffffffffffffffffffffffffffffffffffffffff1916817bffffffffffffffffffffffffffffffffffffffffffffffffffffffff191614612057576040517f08c379a000000000000000000000000000000000000000000000000000000000815260040161204e90612dca565b60405180910390fd5b505b505050505050565b505050505050565b6000808273ffffffffffffffffffffffffffffffffffffffff163b119050919050565b828054612098906132aa565b90600052602060002090601f0160209004810192826120ba5760008555612101565b82601f106120d357805160ff1916838001178555612101565b82800160010185558215612101579182015b828111156121005782518255916020019190600101906120e5565b5b50905061210e9190612112565b5090565b5b8082111561212b576000816000905550600101612113565b5090565b600061214261213d84613053565b61302e565b9050808382526020820190508285602086028201111561216157600080fd5b60005b8581101561219157816121778882612283565b845260208401935060208301925050600181019050612164565b5050509392505050565b60006121ae6121a98461307f565b61302e565b905080838252602082019050828560208602820111156121cd57600080fd5b60005b858110156121fd57816121e3888261237f565b8452602084019350602083019250506001810190506121d0565b5050509392505050565b600061221a612215846130ab565b61302e565b90508281526020810184848401111561223257600080fd5b61223d848285613268565b509392505050565b6000612258612253846130dc565b61302e565b90508281526020810184848401111561227057600080fd5b61227b848285613268565b509392505050565b600081359050612292816139db565b92915050565b600082601f8301126122a957600080fd5b81356122b984826020860161212f565b91505092915050565b600082601f8301126122d357600080fd5b81356122e384826020860161219b565b91505092915050565b6000813590506122fb816139f2565b92915050565b60008135905061231081613a09565b92915050565b60008151905061232581613a09565b92915050565b600082601f83011261233c57600080fd5b813561234c848260208601612207565b91505092915050565b600082601f83011261236657600080fd5b8135612376848260208601612245565b91505092915050565b60008135905061238e81613a20565b92915050565b600080604083850312156123a757600080fd5b60006123b585828601612283565b92505060206123c685828601612283565b9150509250929050565b600080600080600060a086880312156123e857600080fd5b60006123f688828901612283565b955050602061240788828901612283565b945050604086013567ffffffffffffffff81111561242457600080fd5b612430888289016122c2565b935050606086013567ffffffffffffffff81111561244d57600080fd5b612459888289016122c2565b925050608086013567ffffffffffffffff81111561247657600080fd5b6124828882890161232b565b9150509295509295909350565b600080600080600060a086880312156124a757600080fd5b60006124b588828901612283565b95505060206124c688828901612283565b94505060406124d78882890161237f565b93505060606124e88882890161237f565b925050608086013567ffffffffffffffff81111561250557600080fd5b6125118882890161232b565b9150509295509295909350565b6000806040838503121561253157600080fd5b600061253f85828601612283565b9250506020612550858286016122ec565b9150509250929050565b6000806040838503121561256d57600080fd5b600061257b85828601612283565b925050602061258c8582860161237f565b9150509250929050565b600080604083850312156125a957600080fd5b600083013567ffffffffffffffff8111156125c357600080fd5b6125cf85828601612298565b925050602083013567ffffffffffffffff8111156125ec57600080fd5b6125f8858286016122c2565b9150509250929050565b60006020828403121561261457600080fd5b600061262284828501612301565b91505092915050565b60006020828403121561263d57600080fd5b600061264b84828501612316565b91505092915050565b60006020828403121561266657600080fd5b600082013567ffffffffffffffff81111561268057600080fd5b61268c84828501612355565b91505092915050565b600080604083850312156126a857600080fd5b600083013567ffffffffffffffff8111156126c257600080fd5b6126ce85828601612355565b925050602083013567ffffffffffffffff8111156126eb57600080fd5b6126f785828601612355565b9150509250929050565b60006020828403121561271357600080fd5b60006127218482850161237f565b91505092915050565b60006127368383612b9c565b60208301905092915050565b61274b816131f4565b82525050565b600061275c82613132565b6127668185613160565b93506127718361310d565b8060005b838110156127a2578151612789888261272a565b975061279483613153565b925050600181019050612775565b5085935050505092915050565b6127b881613206565b82525050565b60006127c98261313d565b6127d38185613171565b93506127e3818560208601613277565b6127ec81613405565b840191505092915050565b600061280282613148565b61280c8185613182565b935061281c818560208601613277565b61282581613405565b840191505092915050565b600061283b82613148565b6128458185613193565b9350612855818560208601613277565b80840191505092915050565b6000815461286e816132aa565b6128788186613193565b9450600182166000811461289357600181146128a4576128d7565b60ff198316865281860193506128d7565b6128ad8561311d565b60005b838110156128cf578154818901526001820191506020810190506128b0565b838801955050505b50505092915050565b60006128ed603483613182565b91506128f882613423565b604082019050919050565b6000612910602f83613182565b915061291b82613472565b604082019050919050565b6000612933602883613182565b915061293e826134c1565b604082019050919050565b6000612956602483613182565b915061296182613510565b604082019050919050565b6000612979601483613182565b91506129848261355f565b602082019050919050565b600061299c602283613182565b91506129a782613588565b604082019050919050565b60006129bf600c83613182565b91506129ca826135d7565b602082019050919050565b60006129e2602a83613182565b91506129ed82613600565b604082019050919050565b6000612a05603283613182565b9150612a108261364f565b604082019050919050565b6000612a28601083613182565b9150612a338261369e565b602082019050919050565b6000612a4b602583613182565b9150612a56826136c7565b604082019050919050565b6000612a6e602a83613182565b9150612a7982613716565b604082019050919050565b6000612a91600483613193565b9150612a9c82613765565b600482019050919050565b6000612ab4601783613182565b9150612abf8261378e565b602082019050919050565b6000612ad7602983613182565b9150612ae2826137b7565b604082019050919050565b6000612afa602983613182565b9150612b0582613806565b604082019050919050565b6000612b1d602883613182565b9150612b2882613855565b604082019050919050565b6000612b40602183613182565b9150612b4b826138a4565b604082019050919050565b6000612b63601f83613182565b9150612b6e826138f3565b602082019050919050565b6000612b86601983613182565b9150612b918261391c565b602082019050919050565b612ba58161325e565b82525050565b612bb48161325e565b82525050565b6000612bc68284612830565b915081905092915050565b6000612bdd8284612830565b9150612be882612a84565b915081905092915050565b6000612bff8285612861565b9150612c0b8284612861565b91508190509392505050565b6000602082019050612c2c6000830184612742565b92915050565b600060a082019050612c476000830188612742565b612c546020830187612742565b8181036040830152612c668186612751565b90508181036060830152612c7a8185612751565b90508181036080830152612c8e81846127be565b90509695505050505050565b600060a082019050612caf6000830188612742565b612cbc6020830187612742565b612cc96040830186612bab565b612cd66060830185612bab565b8181036080830152612ce881846127be565b90509695505050505050565b60006020820190508181036000830152612d0e8184612751565b905092915050565b60006040820190508181036000830152612d308185612751565b90508181036020830152612d448184612751565b90509392505050565b6000602082019050612d6260008301846127af565b92915050565b60006020820190508181036000830152612d8281846127f7565b905092915050565b60006020820190508181036000830152612da3816128e0565b9050919050565b60006020820190508181036000830152612dc381612903565b9050919050565b60006020820190508181036000830152612de381612926565b9050919050565b60006020820190508181036000830152612e0381612949565b9050919050565b60006020820190508181036000830152612e238161296c565b9050919050565b60006020820190508181036000830152612e438161298f565b9050919050565b60006020820190508181036000830152612e63816129b2565b9050919050565b60006020820190508181036000830152612e83816129d5565b9050919050565b60006020820190508181036000830152612ea3816129f8565b9050919050565b60006020820190508181036000830152612ec381612a1b565b9050919050565b60006020820190508181036000830152612ee381612a3e565b9050919050565b60006020820190508181036000830152612f0381612a61565b9050919050565b60006020820190508181036000830152612f2381612aa7565b9050919050565b60006020820190508181036000830152612f4381612aca565b9050919050565b60006020820190508181036000830152612f6381612aed565b9050919050565b60006020820190508181036000830152612f8381612b10565b9050919050565b60006020820190508181036000830152612fa381612b33565b9050919050565b60006020820190508181036000830152612fc381612b56565b9050919050565b60006020820190508181036000830152612fe381612b79565b9050919050565b6000602082019050612fff6000830184612bab565b92915050565b600060408201905061301a6000830185612bab565b6130276020830184612bab565b9392505050565b6000613038613049565b905061304482826132dc565b919050565b6000604051905090565b600067ffffffffffffffff82111561306e5761306d6133b4565b5b602082029050602081019050919050565b600067ffffffffffffffff82111561309a576130996133b4565b5b602082029050602081019050919050565b600067ffffffffffffffff8211156130c6576130c56133b4565b5b6130cf82613405565b9050602081019050919050565b600067ffffffffffffffff8211156130f7576130f66133b4565b5b61310082613405565b9050602081019050919050565b6000819050602082019050919050565b60008190508160005260206000209050919050565b600081519050919050565b600081519050919050565b600081519050919050565b6000602082019050919050565b600082825260208201905092915050565b600082825260208201905092915050565b600082825260208201905092915050565b600081905092915050565b60006131a98261325e565b91506131b48361325e565b9250827fffffffffffffffffffffffffffffffffffffffffffffffffffffffffffffffff038211156131e9576131e8613356565b5b828201905092915050565b60006131ff8261323e565b9050919050565b60008115159050919050565b60007fffffffff0000000000000000000000000000000000000000000000000000000082169050919050565b600073ffffffffffffffffffffffffffffffffffffffff82169050919050565b6000819050919050565b82818337600083830152505050565b60005b8381101561329557808201518184015260208101905061327a565b838111156132a4576000848401525b50505050565b600060028204905060018216806132c257607f821691505b602082108114156132d6576132d5613385565b5b50919050565b6132e582613405565b810181811067ffffffffffffffff82111715613304576133036133b4565b5b80604052505050565b60006133188261325e565b91507fffffffffffffffffffffffffffffffffffffffffffffffffffffffffffffffff82141561334b5761334a613356565b5b600182019050919050565b7f4e487b7100000000000000000000000000000000000000000000000000000000600052601160045260246000fd5b7f4e487b7100000000000000000000000000000000000000000000000000000000600052602260045260246000fd5b7f4e487b7100000000000000000000000000000000000000000000000000000000600052604160045260246000fd5b600060033d11156134025760046000803e6133ff600051613416565b90505b90565b6000601f19601f8301169050919050565b60008160e01c9050919050565b7f455243313135353a207472616e7366657220746f206e6f6e204552433131353560008201527f526563656976657220696d706c656d656e746572000000000000000000000000602082015250565b7f455243313135353a2063616c6c6572206973206e6f7420746f6b656e206f776e60008201527f6572206e6f7220617070726f7665640000000000000000000000000000000000602082015250565b7f455243313135353a204552433131353552656365697665722072656a6563746560008201527f6420746f6b656e73000000000000000000000000000000000000000000000000602082015250565b7f455243353633333a20536f756c626f756e642c204e6f6e2d5472616e7366657260008201527f61626c6500000000000000000000000000000000000000000000000000000000602082015250565b7f5061757361626c653a206e6f7420706175736564000000000000000000000000600082015250565b7f4c69624469616d6f6e643a204d75737420626520636f6e7472616374206f776e60008201527f6572000000000000000000000000000000000000000000000000000000000000602082015250565b7f50726f706f73616c20444e450000000000000000000000000000000000000000600082015250565b7f455243313135353a2061646472657373207a65726f206973206e6f742061207660008201527f616c6964206f776e657200000000000000000000000000000000000000000000602082015250565b7f436f756e7465723a20696e6372656d656e7420616d6f756e742073686f756c6460008201527f2062652067726561746572207468616e20300000000000000000000000000000602082015250565b7f5061757361626c653a2070617573656400000000000000000000000000000000600082015250565b7f455243313135353a207472616e7366657220746f20746865207a65726f20616460008201527f6472657373000000000000000000000000000000000000000000000000000000602082015250565b7f455243313135353a20696e73756666696369656e742062616c616e636520666f60008201527f72207472616e7366657200000000000000000000000000000000000000000000602082015250565b7f7b69647d00000000000000000000000000000000000000000000000000000000600082015250565b7f55524948617368206d7573742062652070726573656e74000000000000000000600082015250565b7f455243313135353a2073657474696e6720617070726f76616c2073746174757360008201527f20666f722073656c660000000000000000000000000000000000000000000000602082015250565b7f455243313135353a206163636f756e747320616e6420696473206c656e67746860008201527f206d69736d617463680000000000000000000000000000000000000000000000602082015250565b7f455243313135353a2069647320616e6420616d6f756e7473206c656e6774682060008201527f6d69736d61746368000000000000000000000000000000000000000000000000602082015250565b7f455243313135353a206d696e7420746f20746865207a65726f2061646472657360008201527f7300000000000000000000000000000000000000000000000000000000000000602082015250565b7f5265656e7472616e637947756172643a207265656e7472616e742063616c6c00600082015250565b7f416c7265616479206a6f696e65642064697363757373696f6e00000000000000600082015250565b600060443d1015613955576139d8565b61395d613049565b60043d036004823e80513d602482011167ffffffffffffffff821117156139855750506139d8565b808201805167ffffffffffffffff8111156139a357505050506139d8565b80602083010160043d0385018111156139c05750505050506139d8565b6139cf826020018501866132dc565b82955050505050505b90565b6139e4816131f4565b81146139ef57600080fd5b50565b6139fb81613206565b8114613a0657600080fd5b50565b613a1281613212565b8114613a1d57600080fd5b50565b613a298161325e565b8114613a3457600080fd5b5056fea2646970667358221220627d365fadf94652260dd8b6c5825403a8ddd27c481aa51acea7deb95d133f3664736f6c63430008040033",
  "linkReferences": {},
  "deployedLinkReferences": {}
}