{
  "_format": "hh-sol-artifact-1",
  "contractName": "InnovETHGettersFacet",
  "sourceName": "contracts/InnovETH/facets/InnovETHGettersFacet.sol",
  "abi": [
    {
      "inputs": [],
      "name": "PLATFORM_ADDRESS",
      "outputs": [
        {
          "internalType": "address",
          "name": "",
          "type": "address"
        }
      ],
      "stateMutability": "view",
      "type": "function"
    },
    {
      "inputs": [],
      "name": "baseURI",
      "outputs": [
        {
          "internalType": "string",
          "name": "",
          "type": "string"
        }
      ],
      "stateMutability": "view",
      "type": "function"
    },
    {
      "inputs": [],
      "name": "contractURI",
      "outputs": [
        {
          "internalType": "string",
          "name": "",
          "type": "string"
        }
      ],
      "stateMutability": "view",
      "type": "function"
    },
    {
      "inputs": [],
      "name": "name",
      "outputs": [
        {
          "internalType": "string",
          "name": "",
          "type": "string"
        }
      ],
      "stateMutability": "view",
      "type": "function"
    },
    {
      "inputs": [],
      "name": "symbol",
      "outputs": [
        {
          "internalType": "string",
          "name": "",
          "type": "string"
        }
      ],
      "stateMutability": "view",
      "type": "function"
    },
    {
      "inputs": [],
      "name": "totalProposals",
      "outputs": [
        {
          "components": [
            {
              "internalType": "uint256",
              "name": "_value",
              "type": "uint256"
            }
          ],
          "internalType": "struct Counters.Counter",
          "name": "",
          "type": "tuple"
        }
      ],
      "stateMutability": "view",
      "type": "function"
    }
  ],
  "bytecode": "0x608060405234801561001057600080fd5b506105d2806100206000396000f3fe608060405234801561001057600080fd5b50600436106100625760003560e01c806306fdde03146100675780636c0360eb1461008557806395d89b41146100a3578063a78d80fc146100c1578063bbc28489146100df578063e8a3d485146100fd575b600080fd5b61006f61011b565b60405161007c9190610462565b60405180910390f35b61008d6101af565b60405161009a9190610462565b60405180910390f35b6100ab610244565b6040516100b89190610462565b60405180910390f35b6100c96102d9565b6040516100d69190610484565b60405180910390f35b6100e7610300565b6040516100f49190610447565b60405180910390f35b61010561032c565b6040516101129190610462565b60405180910390f35b606060008001805461012c9061052a565b80601f01602080910402602001604051908101604052809291908181526020018280546101589061052a565b80156101a55780601f1061017a576101008083540402835291602001916101a5565b820191906000526020600020905b81548152906001019060200180831161018857829003601f168201915b5050505050905090565b6060600060030180546101c19061052a565b80601f01602080910402602001604051908101604052809291908181526020018280546101ed9061052a565b801561023a5780601f1061020f5761010080835404028352916020019161023a565b820191906000526020600020905b81548152906001019060200180831161021d57829003601f168201915b5050505050905090565b6060600060010180546102569061052a565b80601f01602080910402602001604051908101604052809291908181526020018280546102829061052a565b80156102cf5780601f106102a4576101008083540402835291602001916102cf565b820191906000526020600020905b8154815290600101906020018083116102b257829003601f168201915b5050505050905090565b6102e16103c1565b6000600701604051806020016040529081600082015481525050905090565b60008060040160009054906101000a900473ffffffffffffffffffffffffffffffffffffffff16905090565b60606000600201805461033e9061052a565b80601f016020809104026020016040519081016040528092919081815260200182805461036a9061052a565b80156103b75780601f1061038c576101008083540402835291602001916103b7565b820191906000526020600020905b81548152906001019060200180831161039a57829003601f168201915b5050505050905090565b6040518060200160405280600081525090565b6103dd816104bb565b82525050565b60006103ee8261049f565b6103f881856104aa565b93506104088185602086016104f7565b6104118161058b565b840191505092915050565b6020820160008201516104326000850182610438565b50505050565b610441816104ed565b82525050565b600060208201905061045c60008301846103d4565b92915050565b6000602082019050818103600083015261047c81846103e3565b905092915050565b6000602082019050610499600083018461041c565b92915050565b600081519050919050565b600082825260208201905092915050565b60006104c6826104cd565b9050919050565b600073ffffffffffffffffffffffffffffffffffffffff82169050919050565b6000819050919050565b60005b838110156105155780820151818401526020810190506104fa565b83811115610524576000848401525b50505050565b6000600282049050600182168061054257607f821691505b602082108114156105565761055561055c565b5b50919050565b7f4e487b7100000000000000000000000000000000000000000000000000000000600052602260045260246000fd5b6000601f19601f830116905091905056fea2646970667358221220089213c2bb995bd5c5164af27042627e52317b9e90cab57f04cd5ad2c0994d2364736f6c63430008040033",
  "linkReferences": {},
  "deployedLinkReferences": {}
}